{
  "_format": "hh-sol-artifact-1",
  "contractName": "CommunityIssuance",
  "sourceName": "contracts/LQTY/CommunityIssuance.sol",
  "abi": [
    {
      "inputs": [],
      "stateMutability": "nonpayable",
      "type": "constructor"
    },
    {
      "anonymous": false,
      "inputs": [
        {
          "indexed": false,
          "internalType": "address",
          "name": "_burnableTokenAddress",
          "type": "address"
        }
      ],
      "name": "BurnTokenAddressSet",
      "type": "event"
    },
    {
      "anonymous": false,
      "inputs": [
        {
          "indexed": false,
          "internalType": "address",
          "name": "_burnableToken",
          "type": "address"
        }
      ],
      "name": "BurnableTokenAddressSet",
      "type": "event"
    },
    {
      "anonymous": false,
      "inputs": [
        {
          "indexed": false,
          "internalType": "address",
          "name": "_lqtyTokenAddress",
          "type": "address"
        }
      ],
      "name": "LQTYTokenAddressSet",
      "type": "event"
    },
    {
      "anonymous": false,
      "inputs": [
        {
          "indexed": true,
          "internalType": "address",
          "name": "previousOwner",
          "type": "address"
        },
        {
          "indexed": true,
          "internalType": "address",
          "name": "newOwner",
          "type": "address"
        }
      ],
      "name": "OwnershipTransferred",
      "type": "event"
    },
    {
      "anonymous": false,
      "inputs": [
        {
          "indexed": false,
          "internalType": "address",
          "name": "_stabilityPoolAddress",
          "type": "address"
        }
      ],
      "name": "StabilityPoolAddressSet",
      "type": "event"
    },
    {
      "anonymous": false,
      "inputs": [
        {
          "indexed": false,
          "internalType": "uint256",
          "name": "_totalLQTYIssued",
          "type": "uint256"
        }
      ],
      "name": "TotalLQTYIssuedUpdated",
      "type": "event"
    },
    {
      "inputs": [],
      "name": "DECIMAL_PRECISION",
      "outputs": [
        {
          "internalType": "uint256",
          "name": "",
          "type": "uint256"
        }
      ],
      "stateMutability": "view",
      "type": "function"
    },
    {
      "inputs": [],
      "name": "ISSUANCE_FACTOR",
      "outputs": [
        {
          "internalType": "uint256",
          "name": "",
          "type": "uint256"
        }
      ],
      "stateMutability": "view",
      "type": "function"
    },
    {
      "inputs": [],
      "name": "LQTYSupplyCap",
      "outputs": [
        {
          "internalType": "uint256",
          "name": "",
          "type": "uint256"
        }
      ],
      "stateMutability": "view",
      "type": "function"
    },
    {
      "inputs": [],
      "name": "NAME",
      "outputs": [
        {
          "internalType": "string",
          "name": "",
          "type": "string"
        }
      ],
      "stateMutability": "view",
      "type": "function"
    },
    {
      "inputs": [],
      "name": "SECONDS_IN_ONE_MINUTE",
      "outputs": [
        {
          "internalType": "uint256",
          "name": "",
          "type": "uint256"
        }
      ],
      "stateMutability": "view",
      "type": "function"
    },
    {
      "inputs": [],
      "name": "burnableToken",
      "outputs": [
        {
          "internalType": "contract IERC20Burnable",
          "name": "",
          "type": "address"
        }
      ],
      "stateMutability": "view",
      "type": "function"
    },
    {
      "inputs": [],
      "name": "deploymentTime",
      "outputs": [
        {
          "internalType": "uint256",
          "name": "",
          "type": "uint256"
        }
      ],
      "stateMutability": "view",
      "type": "function"
    },
    {
      "inputs": [],
      "name": "isOwner",
      "outputs": [
        {
          "internalType": "bool",
          "name": "",
          "type": "bool"
        }
      ],
      "stateMutability": "view",
      "type": "function"
    },
    {
      "inputs": [],
      "name": "issueLQTY",
      "outputs": [
        {
          "internalType": "uint256",
          "name": "",
          "type": "uint256"
        }
      ],
      "stateMutability": "nonpayable",
      "type": "function"
    },
    {
      "inputs": [],
      "name": "lqtyToken",
      "outputs": [
        {
          "internalType": "contract ILQTYToken",
          "name": "",
          "type": "address"
        }
      ],
      "stateMutability": "view",
      "type": "function"
    },
    {
      "inputs": [],
      "name": "owner",
      "outputs": [
        {
          "internalType": "address",
          "name": "",
          "type": "address"
        }
      ],
      "stateMutability": "view",
      "type": "function"
    },
    {
      "inputs": [
        {
          "internalType": "address",
          "name": "_account",
          "type": "address"
        },
        {
          "internalType": "uint256",
          "name": "_LQTYamount",
          "type": "uint256"
        }
      ],
      "name": "sendLQTY",
      "outputs": [],
      "stateMutability": "nonpayable",
      "type": "function"
    },
    {
      "inputs": [
        {
          "internalType": "address",
          "name": "_lqtyTokenAddress",
          "type": "address"
        },
        {
          "internalType": "address",
          "name": "_burnableTokenAddress",
          "type": "address"
        },
        {
          "internalType": "address",
          "name": "_stabilityPoolAddress",
          "type": "address"
        }
      ],
      "name": "setAddresses",
      "outputs": [],
      "stateMutability": "nonpayable",
      "type": "function"
    },
    {
      "inputs": [],
      "name": "stabilityPoolAddress",
      "outputs": [
        {
          "internalType": "address",
          "name": "",
          "type": "address"
        }
      ],
      "stateMutability": "view",
      "type": "function"
    },
    {
      "inputs": [],
      "name": "totalLQTYIssued",
      "outputs": [
        {
          "internalType": "uint256",
          "name": "",
          "type": "uint256"
        }
      ],
      "stateMutability": "view",
      "type": "function"
    }
  ],
  "bytecode": "0x60a060405234801561001057600080fd5b50600080546001600160a01b0319163390811782556040519091907f8be0079c531659141344cd1fd0a4f28419497f9722a3daafe3b4186f6b6457e0908290a342608052608051610c2961007360003980610694528061080c5250610c296000f3fe608060405234801561001057600080fd5b50600436106100d55760003560e01c806361ec893d1161008757806361ec893d146101965780638da5cb5b1461019e5780638f32d59b146101a65780639841c605146101c2578063a20baee6146101ca578063a3f4df7e146101d2578063b140384b1461024f578063ecda10f514610257576100d5565b80630b622ab2146100da5780630fc83da3146100fe5780631f7af3c314610118578063363bf9641461012057806346ad34d91461015a5780634e5c995714610162578063614d2ab61461016a575b600080fd5b6100e261025f565b604080516001600160a01b039092168252519081900360200190f35b61010661026e565b60408051918252519081900360200190f35b6100e261027a565b6101586004803603606081101561013657600080fd5b506001600160a01b038135811691602081013582169160409091013516610289565b005b610106610482565b610106610588565b6101586004803603604081101561018057600080fd5b506001600160a01b038135169060200135610597565b61010661061f565b6100e2610624565b6101ae610633565b604080519115158252519081900360200190f35b6100e2610644565b610106610653565b6101da61065f565b6040805160208082528351818301528351919283929083019185019080838360005b838110156102145781810151838201526020016101fc565b50505050905090810190601f1680156102415780820380516001836020036101000a031916815260200191505b509250505060405180910390f35b61010661068c565b610106610692565b6003546001600160a01b031681565b670de0b5809a6f939881565b6001546001600160a01b031681565b610291610633565b6102e2576040805162461bcd60e51b815260206004820181905260248201527f4f776e61626c653a2063616c6c6572206973206e6f7420746865206f776e6572604482015290519081900360640190fd5b6102eb836106b6565b6102f4826106b6565b6102fd816106b6565b600180546001600160a01b038086166001600160a01b031992831617928390556002805486831690841617905560038054858316931692909217909155604080516370a0823160e01b81523060048201529051600093909216916370a0823191602480820192602092909190829003018186803b15801561037d57600080fd5b505afa158015610391573d6000803e3d6000fd5b505050506040513d60208110156103a757600080fd5b505190506a013da329b63364718000008110156103c057fe5b604080516001600160a01b038616815290517fb0c89119a7c10e4c2d02306921ba368ac83d0e4b302337916017485c2791bec59181900360200190a1604080516001600160a01b038516815290517f800379676da759885f5705bde2a442cea4ff5cf797fa215b9a244223c92b42fa9181900360200190a1604080516001600160a01b038416815290517f45c53611bc8ba9e11f4f8173bda9e3faf89c395ddb83f9a55230b156828db3159181900360200190a161047c610769565b50505050565b600061048c6107b3565b60006104c9670de0b6b3a76400006104bd6104a56107fe565b6a013da329b63364718000009063ffffffff61088316565b9063ffffffff6108e516565b905060006104e26004548361092790919063ffffffff16565b60025460408051630852cd8d60e31b81526004810184905290519293506001600160a01b03909116916342966c689160248082019260009290919082900301818387803b15801561053257600080fd5b505af1158015610546573d6000803e3d6000fd5b5050506004839055506040805183815290517f033068abf93bdec23e781d0a3b3f3e688bfa8471c68b629ad68652cdc63a6e499181900360200190a191505090565b6a013da329b633647180000081565b61059f6107b3565b6001546040805163a9059cbb60e01b81526001600160a01b038581166004830152602482018590529151919092169163a9059cbb9160448083019260209291908290030181600087803b1580156105f557600080fd5b505af1158015610609573d6000803e3d6000fd5b505050506040513d602081101561047c57600080fd5b603c81565b6000546001600160a01b031690565b6000546001600160a01b0316331490565b6002546001600160a01b031681565b670de0b6b3a764000081565b60405180604001604052806011815260200170436f6d6d756e69747949737375616e636560781b81525081565b60045481565b7f000000000000000000000000000000000000000000000000000000000000000081565b6001600160a01b038116610711576040805162461bcd60e51b815260206004820152601e60248201527f4163636f756e742063616e6e6f74206265207a65726f20616464726573730000604482015290519081900360640190fd5b803b80610765576040805162461bcd60e51b815260206004820181905260248201527f4163636f756e7420636f64652073697a652063616e6e6f74206265207a65726f604482015290519081900360640190fd5b5050565b600080546040516001600160a01b03909116907f8be0079c531659141344cd1fd0a4f28419497f9722a3daafe3b4186f6b6457e0908390a3600080546001600160a01b0319169055565b6003546001600160a01b031633146107fc5760405162461bcd60e51b8152600401808060200182810382526023815260200180610bd16023913960400191505060405180910390fd5b565b600080610836603c6104bd427f000000000000000000000000000000000000000000000000000000000000000063ffffffff61092716565b9050600061084c670de0b5809a6f939883610969565b90506000610868670de0b6b3a76400008363ffffffff61092716565b9050670de0b6b3a764000081111561087c57fe5b9250505090565b600082610892575060006108df565b8282028284828161089f57fe5b04146108dc5760405162461bcd60e51b8152600401808060200182810382526021815260200180610bb06021913960400191505060405180910390fd5b90505b92915050565b60006108dc83836040518060400160405280601a81526020017f536166654d6174683a206469766973696f6e206279207a65726f000000000000815250610a1e565b60006108dc83836040518060400160405280601e81526020017f536166654d6174683a207375627472616374696f6e206f766572666c6f770000815250610ac0565b6000631f54050082111561097f57631f54050091505b816109935750670de0b6b3a76400006108df565b670de0b6b3a764000083835b6001811115610a0a57600281066109d4576109ba8283610b1a565b91506109cd81600263ffffffff6108e516565b9050610a05565b6109de8284610b1a565b92506109ea8283610b1a565b9150610a0260026104bd83600163ffffffff61092716565b90505b61099f565b610a148284610b1a565b9695505050505050565b60008183610aaa5760405162461bcd60e51b81526004018080602001828103825283818151815260200191508051906020019080838360005b83811015610a6f578181015183820152602001610a57565b50505050905090810190601f168015610a9c5780820380516001836020036101000a031916815260200191505b509250505060405180910390fd5b506000838581610ab657fe5b0495945050505050565b60008184841115610b125760405162461bcd60e51b8152602060048201818152835160248401528351909283926044909101919085019080838360008315610a6f578181015183820152602001610a57565b505050900390565b600080610b2d848463ffffffff61088316565b9050610b4d670de0b6b3a76400006104bd836706f05b59d3b20000610b55565b949350505050565b6000828201838110156108dc576040805162461bcd60e51b815260206004820152601b60248201527f536166654d6174683a206164646974696f6e206f766572666c6f770000000000604482015290519081900360640190fdfe536166654d6174683a206d756c7469706c69636174696f6e206f766572666c6f77436f6d6d756e69747949737375616e63653a2063616c6c6572206973206e6f74205350a26469706673582212206bc4080347dfa7f877af581b823af55f0ef82f1a94caf5b64327d7ac5a3d02b164736f6c634300060b0033",
  "linkReferences": {},
  "deployedLinkReferences": {}
}