{
  "_format": "hh-sol-artifact-1",
  "contractName": "CommunityIssuanceTester",
  "sourceName": "contracts/TestContracts/CommunityIssuanceTester.sol",
  "abi": [
    {
      "anonymous": false,
      "inputs": [
        {
          "indexed": false,
          "internalType": "address",
          "name": "_burnableTokenAddress",
          "type": "address"
        }
      ],
      "name": "BurnTokenAddressSet",
      "type": "event"
    },
    {
      "anonymous": false,
      "inputs": [
        {
          "indexed": false,
          "internalType": "address",
          "name": "_burnableToken",
          "type": "address"
        }
      ],
      "name": "BurnableTokenAddressSet",
      "type": "event"
    },
    {
      "anonymous": false,
      "inputs": [
        {
          "indexed": false,
          "internalType": "address",
          "name": "_lqtyTokenAddress",
          "type": "address"
        }
      ],
      "name": "LQTYTokenAddressSet",
      "type": "event"
    },
    {
      "anonymous": false,
      "inputs": [
        {
          "indexed": true,
          "internalType": "address",
          "name": "previousOwner",
          "type": "address"
        },
        {
          "indexed": true,
          "internalType": "address",
          "name": "newOwner",
          "type": "address"
        }
      ],
      "name": "OwnershipTransferred",
      "type": "event"
    },
    {
      "anonymous": false,
      "inputs": [
        {
          "indexed": false,
          "internalType": "address",
          "name": "_stabilityPoolAddress",
          "type": "address"
        }
      ],
      "name": "StabilityPoolAddressSet",
      "type": "event"
    },
    {
      "anonymous": false,
      "inputs": [
        {
          "indexed": false,
          "internalType": "uint256",
          "name": "_totalLQTYIssued",
          "type": "uint256"
        }
      ],
      "name": "TotalLQTYIssuedUpdated",
      "type": "event"
    },
    {
      "inputs": [],
      "name": "DECIMAL_PRECISION",
      "outputs": [
        {
          "internalType": "uint256",
          "name": "",
          "type": "uint256"
        }
      ],
      "stateMutability": "view",
      "type": "function"
    },
    {
      "inputs": [],
      "name": "ISSUANCE_FACTOR",
      "outputs": [
        {
          "internalType": "uint256",
          "name": "",
          "type": "uint256"
        }
      ],
      "stateMutability": "view",
      "type": "function"
    },
    {
      "inputs": [],
      "name": "LQTYSupplyCap",
      "outputs": [
        {
          "internalType": "uint256",
          "name": "",
          "type": "uint256"
        }
      ],
      "stateMutability": "view",
      "type": "function"
    },
    {
      "inputs": [],
      "name": "NAME",
      "outputs": [
        {
          "internalType": "string",
          "name": "",
          "type": "string"
        }
      ],
      "stateMutability": "view",
      "type": "function"
    },
    {
      "inputs": [],
      "name": "SECONDS_IN_ONE_MINUTE",
      "outputs": [
        {
          "internalType": "uint256",
          "name": "",
          "type": "uint256"
        }
      ],
      "stateMutability": "view",
      "type": "function"
    },
    {
      "inputs": [],
      "name": "burnableToken",
      "outputs": [
        {
          "internalType": "contract IERC20Burnable",
          "name": "",
          "type": "address"
        }
      ],
      "stateMutability": "view",
      "type": "function"
    },
    {
      "inputs": [],
      "name": "deploymentTime",
      "outputs": [
        {
          "internalType": "uint256",
          "name": "",
          "type": "uint256"
        }
      ],
      "stateMutability": "view",
      "type": "function"
    },
    {
      "inputs": [],
      "name": "getCumulativeIssuanceFraction",
      "outputs": [
        {
          "internalType": "uint256",
          "name": "",
          "type": "uint256"
        }
      ],
      "stateMutability": "view",
      "type": "function"
    },
    {
      "inputs": [],
      "name": "isOwner",
      "outputs": [
        {
          "internalType": "bool",
          "name": "",
          "type": "bool"
        }
      ],
      "stateMutability": "view",
      "type": "function"
    },
    {
      "inputs": [],
      "name": "issueLQTY",
      "outputs": [
        {
          "internalType": "uint256",
          "name": "",
          "type": "uint256"
        }
      ],
      "stateMutability": "nonpayable",
      "type": "function"
    },
    {
      "inputs": [],
      "name": "lqtyToken",
      "outputs": [
        {
          "internalType": "contract ILQTYToken",
          "name": "",
          "type": "address"
        }
      ],
      "stateMutability": "view",
      "type": "function"
    },
    {
      "inputs": [
        {
          "internalType": "uint256",
          "name": "_amount",
          "type": "uint256"
        }
      ],
      "name": "obtainLQTY",
      "outputs": [],
      "stateMutability": "nonpayable",
      "type": "function"
    },
    {
      "inputs": [],
      "name": "owner",
      "outputs": [
        {
          "internalType": "address",
          "name": "",
          "type": "address"
        }
      ],
      "stateMutability": "view",
      "type": "function"
    },
    {
      "inputs": [
        {
          "internalType": "address",
          "name": "_account",
          "type": "address"
        },
        {
          "internalType": "uint256",
          "name": "_LQTYamount",
          "type": "uint256"
        }
      ],
      "name": "sendLQTY",
      "outputs": [],
      "stateMutability": "nonpayable",
      "type": "function"
    },
    {
      "inputs": [
        {
          "internalType": "address",
          "name": "_lqtyTokenAddress",
          "type": "address"
        },
        {
          "internalType": "address",
          "name": "_burnableTokenAddress",
          "type": "address"
        },
        {
          "internalType": "address",
          "name": "_stabilityPoolAddress",
          "type": "address"
        }
      ],
      "name": "setAddresses",
      "outputs": [],
      "stateMutability": "nonpayable",
      "type": "function"
    },
    {
      "inputs": [],
      "name": "stabilityPoolAddress",
      "outputs": [
        {
          "internalType": "address",
          "name": "",
          "type": "address"
        }
      ],
      "stateMutability": "view",
      "type": "function"
    },
    {
      "inputs": [],
      "name": "totalLQTYIssued",
      "outputs": [
        {
          "internalType": "uint256",
          "name": "",
          "type": "uint256"
        }
      ],
      "stateMutability": "view",
      "type": "function"
    },
    {
      "inputs": [],
      "name": "unprotectedIssueLQTY",
      "outputs": [
        {
          "internalType": "uint256",
          "name": "",
          "type": "uint256"
        }
      ],
      "stateMutability": "nonpayable",
      "type": "function"
    }
  ],
  "bytecode": "0x60a060405234801561001057600080fd5b50600080546001600160a01b0319163390811782556040519091907f8be0079c531659141344cd1fd0a4f28419497f9722a3daafe3b4186f6b6457e0908290a342608052608051610daf6100736000398061081a52806109475250610daf6000f3fe608060405234801561001057600080fd5b50600436106100f65760003560e01c806361fc8ab41161009257806361fc8ab4146101c75780638da5cb5b146101e45780638f32d59b146101ec5780639841c605146102085780639d5b044d14610210578063a20baee614610218578063a3f4df7e14610220578063b140384b1461029d578063ecda10f5146102a5576100f6565b80630b622ab2146100fb5780630fc83da31461011f5780631f7af3c314610139578063363bf9641461014157806343e0a60b1461017b57806346ad34d9146101835780634e5c99571461018b578063614d2ab61461019357806361ec893d146101bf575b600080fd5b6101036102ad565b604080516001600160a01b039092168252519081900360200190f35b6101276102bc565b60408051918252519081900360200190f35b6101036102c8565b6101796004803603606081101561015757600080fd5b506001600160a01b0381358116916020810135821691604090910135166102d7565b005b6101276104d0565b61012761059a565b61012761067c565b610179600480360360408110156101a957600080fd5b506001600160a01b03813516906020013561068b565b610127610713565b610179600480360360208110156101dd57600080fd5b5035610718565b61010361079b565b6101f46107aa565b604080519115158252519081900360200190f35b6101036107bb565b6101276107ca565b6101276107d9565b6102286107e5565b6040805160208082528351818301528351919283929083019185019080838360005b8381101561026257818101518382015260200161024a565b50505050905090810190601f16801561028f5780820380516001836020036101000a031916815260200191505b509250505060405180910390f35b610127610812565b610127610818565b6003546001600160a01b031681565b670de0b5809a6f939881565b6001546001600160a01b031681565b6102df6107aa565b610330576040805162461bcd60e51b815260206004820181905260248201527f4f776e61626c653a2063616c6c6572206973206e6f7420746865206f776e6572604482015290519081900360640190fd5b6103398361083c565b6103428261083c565b61034b8161083c565b600180546001600160a01b038086166001600160a01b031992831617928390556002805486831690841617905560038054858316931692909217909155604080516370a0823160e01b81523060048201529051600093909216916370a0823191602480820192602092909190829003018186803b1580156103cb57600080fd5b505afa1580156103df573d6000803e3d6000fd5b505050506040513d60208110156103f557600080fd5b505190506a013da329b633647180000081101561040e57fe5b604080516001600160a01b038616815290517fb0c89119a7c10e4c2d02306921ba368ac83d0e4b302337916017485c2791bec59181900360200190a1604080516001600160a01b038516815290517f800379676da759885f5705bde2a442cea4ff5cf797fa215b9a244223c92b42fa9181900360200190a1604080516001600160a01b038416815290517f45c53611bc8ba9e11f4f8173bda9e3faf89c395ddb83f9a55230b156828db3159181900360200190a16104ca6108ef565b50505050565b60008061050e670de0b6b3a76400006105026104ea610939565b6a013da329b63364718000009063ffffffff6109be16565b9063ffffffff610a2016565b9050600061052760045483610a6290919063ffffffff16565b60025460408051630852cd8d60e31b81526004810184905290519293506001600160a01b03909116916342966c689160248082019260009290919082900301818387803b15801561057757600080fd5b505af115801561058b573d6000803e3d6000fd5b50505060049290925591505090565b60006105a4610aa4565b60006105bd670de0b6b3a76400006105026104ea610939565b905060006105d660045483610a6290919063ffffffff16565b60025460408051630852cd8d60e31b81526004810184905290519293506001600160a01b03909116916342966c689160248082019260009290919082900301818387803b15801561062657600080fd5b505af115801561063a573d6000803e3d6000fd5b5050506004839055506040805183815290517f033068abf93bdec23e781d0a3b3f3e688bfa8471c68b629ad68652cdc63a6e499181900360200190a191505090565b6a013da329b633647180000081565b610693610aa4565b6001546040805163a9059cbb60e01b81526001600160a01b038581166004830152602482018590529151919092169163a9059cbb9160448083019260209291908290030181600087803b1580156106e957600080fd5b505af11580156106fd573d6000803e3d6000fd5b505050506040513d60208110156104ca57600080fd5b603c81565b6001546040805163a9059cbb60e01b81523360048201526024810184905290516001600160a01b039092169163a9059cbb916044808201926020929091908290030181600087803b15801561076c57600080fd5b505af1158015610780573d6000803e3d6000fd5b505050506040513d602081101561079657600080fd5b505050565b6000546001600160a01b031690565b6000546001600160a01b0316331490565b6002546001600160a01b031681565b60006107d4610939565b905090565b670de0b6b3a764000081565b60405180604001604052806011815260200170436f6d6d756e69747949737375616e636560781b81525081565b60045481565b7f000000000000000000000000000000000000000000000000000000000000000081565b6001600160a01b038116610897576040805162461bcd60e51b815260206004820152601e60248201527f4163636f756e742063616e6e6f74206265207a65726f20616464726573730000604482015290519081900360640190fd5b803b806108eb576040805162461bcd60e51b815260206004820181905260248201527f4163636f756e7420636f64652073697a652063616e6e6f74206265207a65726f604482015290519081900360640190fd5b5050565b600080546040516001600160a01b03909116907f8be0079c531659141344cd1fd0a4f28419497f9722a3daafe3b4186f6b6457e0908390a3600080546001600160a01b0319169055565b600080610971603c610502427f000000000000000000000000000000000000000000000000000000000000000063ffffffff610a6216565b90506000610987670de0b5809a6f939883610aef565b905060006109a3670de0b6b3a76400008363ffffffff610a6216565b9050670de0b6b3a76400008111156109b757fe5b9250505090565b6000826109cd57506000610a1a565b828202828482816109da57fe5b0414610a175760405162461bcd60e51b8152600401808060200182810382526021815260200180610d366021913960400191505060405180910390fd5b90505b92915050565b6000610a1783836040518060400160405280601a81526020017f536166654d6174683a206469766973696f6e206279207a65726f000000000000815250610ba4565b6000610a1783836040518060400160405280601e81526020017f536166654d6174683a207375627472616374696f6e206f766572666c6f770000815250610c46565b6003546001600160a01b03163314610aed5760405162461bcd60e51b8152600401808060200182810382526023815260200180610d576023913960400191505060405180910390fd5b565b6000631f540500821115610b0557631f54050091505b81610b195750670de0b6b3a7640000610a1a565b670de0b6b3a764000083835b6001811115610b905760028106610b5a57610b408283610ca0565b9150610b5381600263ffffffff610a2016565b9050610b8b565b610b648284610ca0565b9250610b708283610ca0565b9150610b88600261050283600163ffffffff610a6216565b90505b610b25565b610b9a8284610ca0565b9695505050505050565b60008183610c305760405162461bcd60e51b81526004018080602001828103825283818151815260200191508051906020019080838360005b83811015610bf5578181015183820152602001610bdd565b50505050905090810190601f168015610c225780820380516001836020036101000a031916815260200191505b509250505060405180910390fd5b506000838581610c3c57fe5b0495945050505050565b60008184841115610c985760405162461bcd60e51b8152602060048201818152835160248401528351909283926044909101919085019080838360008315610bf5578181015183820152602001610bdd565b505050900390565b600080610cb3848463ffffffff6109be16565b9050610cd3670de0b6b3a7640000610502836706f05b59d3b20000610cdb565b949350505050565b600082820183811015610a17576040805162461bcd60e51b815260206004820152601b60248201527f536166654d6174683a206164646974696f6e206f766572666c6f770000000000604482015290519081900360640190fdfe536166654d6174683a206d756c7469706c69636174696f6e206f766572666c6f77436f6d6d756e69747949737375616e63653a2063616c6c6572206973206e6f74205350a2646970667358221220d04514082dd9e32647dc374b8b35916ef891310ac5d1114b0b9f1488f2e26c7d64736f6c634300060b0033",
  "linkReferences": {},
  "deployedLinkReferences": {}
}