{
  "_format": "hh-sol-artifact-1",
  "contractName": "ERC20Mock",
  "sourceName": "contracts/LQTY/TestContracts/ERC20Mock.sol",
  "abi": [
    {
      "inputs": [
        {
          "internalType": "string",
          "name": "name",
          "type": "string"
        },
        {
          "internalType": "string",
          "name": "symbol",
          "type": "string"
        },
        {
          "internalType": "address",
          "name": "initialAccount",
          "type": "address"
        },
        {
          "internalType": "uint256",
          "name": "initialBalance",
          "type": "uint256"
        }
      ],
      "stateMutability": "payable",
      "type": "constructor"
    },
    {
      "anonymous": false,
      "inputs": [
        {
          "indexed": true,
          "internalType": "address",
          "name": "owner",
          "type": "address"
        },
        {
          "indexed": true,
          "internalType": "address",
          "name": "spender",
          "type": "address"
        },
        {
          "indexed": false,
          "internalType": "uint256",
          "name": "value",
          "type": "uint256"
        }
      ],
      "name": "Approval",
      "type": "event"
    },
    {
      "anonymous": false,
      "inputs": [
        {
          "indexed": true,
          "internalType": "address",
          "name": "from",
          "type": "address"
        },
        {
          "indexed": true,
          "internalType": "address",
          "name": "to",
          "type": "address"
        },
        {
          "indexed": false,
          "internalType": "uint256",
          "name": "value",
          "type": "uint256"
        }
      ],
      "name": "Transfer",
      "type": "event"
    },
    {
      "inputs": [
        {
          "internalType": "address",
          "name": "owner",
          "type": "address"
        },
        {
          "internalType": "address",
          "name": "spender",
          "type": "address"
        }
      ],
      "name": "allowance",
      "outputs": [
        {
          "internalType": "uint256",
          "name": "",
          "type": "uint256"
        }
      ],
      "stateMutability": "view",
      "type": "function"
    },
    {
      "inputs": [
        {
          "internalType": "address",
          "name": "spender",
          "type": "address"
        },
        {
          "internalType": "uint256",
          "name": "amount",
          "type": "uint256"
        }
      ],
      "name": "approve",
      "outputs": [
        {
          "internalType": "bool",
          "name": "",
          "type": "bool"
        }
      ],
      "stateMutability": "nonpayable",
      "type": "function"
    },
    {
      "inputs": [
        {
          "internalType": "address",
          "name": "owner",
          "type": "address"
        },
        {
          "internalType": "address",
          "name": "spender",
          "type": "address"
        },
        {
          "internalType": "uint256",
          "name": "value",
          "type": "uint256"
        }
      ],
      "name": "approveInternal",
      "outputs": [],
      "stateMutability": "nonpayable",
      "type": "function"
    },
    {
      "inputs": [
        {
          "internalType": "address",
          "name": "account",
          "type": "address"
        }
      ],
      "name": "balanceOf",
      "outputs": [
        {
          "internalType": "uint256",
          "name": "",
          "type": "uint256"
        }
      ],
      "stateMutability": "view",
      "type": "function"
    },
    {
      "inputs": [
        {
          "internalType": "uint256",
          "name": "amount",
          "type": "uint256"
        }
      ],
      "name": "burn",
      "outputs": [],
      "stateMutability": "nonpayable",
      "type": "function"
    },
    {
      "inputs": [
        {
          "internalType": "address",
          "name": "from",
          "type": "address"
        },
        {
          "internalType": "uint256",
          "name": "value",
          "type": "uint256"
        }
      ],
      "name": "burnFrom",
      "outputs": [],
      "stateMutability": "nonpayable",
      "type": "function"
    },
    {
      "inputs": [],
      "name": "decimals",
      "outputs": [
        {
          "internalType": "uint8",
          "name": "",
          "type": "uint8"
        }
      ],
      "stateMutability": "view",
      "type": "function"
    },
    {
      "inputs": [
        {
          "internalType": "address",
          "name": "spender",
          "type": "address"
        },
        {
          "internalType": "uint256",
          "name": "subtractedValue",
          "type": "uint256"
        }
      ],
      "name": "decreaseAllowance",
      "outputs": [
        {
          "internalType": "bool",
          "name": "",
          "type": "bool"
        }
      ],
      "stateMutability": "nonpayable",
      "type": "function"
    },
    {
      "inputs": [
        {
          "internalType": "address",
          "name": "spender",
          "type": "address"
        },
        {
          "internalType": "uint256",
          "name": "addedValue",
          "type": "uint256"
        }
      ],
      "name": "increaseAllowance",
      "outputs": [
        {
          "internalType": "bool",
          "name": "",
          "type": "bool"
        }
      ],
      "stateMutability": "nonpayable",
      "type": "function"
    },
    {
      "inputs": [
        {
          "internalType": "address",
          "name": "account",
          "type": "address"
        },
        {
          "internalType": "uint256",
          "name": "amount",
          "type": "uint256"
        }
      ],
      "name": "mint",
      "outputs": [],
      "stateMutability": "nonpayable",
      "type": "function"
    },
    {
      "inputs": [],
      "name": "name",
      "outputs": [
        {
          "internalType": "string",
          "name": "",
          "type": "string"
        }
      ],
      "stateMutability": "view",
      "type": "function"
    },
    {
      "inputs": [],
      "name": "symbol",
      "outputs": [
        {
          "internalType": "string",
          "name": "",
          "type": "string"
        }
      ],
      "stateMutability": "view",
      "type": "function"
    },
    {
      "inputs": [],
      "name": "totalSupply",
      "outputs": [
        {
          "internalType": "uint256",
          "name": "",
          "type": "uint256"
        }
      ],
      "stateMutability": "view",
      "type": "function"
    },
    {
      "inputs": [
        {
          "internalType": "address",
          "name": "recipient",
          "type": "address"
        },
        {
          "internalType": "uint256",
          "name": "amount",
          "type": "uint256"
        }
      ],
      "name": "transfer",
      "outputs": [
        {
          "internalType": "bool",
          "name": "",
          "type": "bool"
        }
      ],
      "stateMutability": "nonpayable",
      "type": "function"
    },
    {
      "inputs": [
        {
          "internalType": "address",
          "name": "sender",
          "type": "address"
        },
        {
          "internalType": "address",
          "name": "recipient",
          "type": "address"
        },
        {
          "internalType": "uint256",
          "name": "amount",
          "type": "uint256"
        }
      ],
      "name": "transferFrom",
      "outputs": [
        {
          "internalType": "bool",
          "name": "",
          "type": "bool"
        }
      ],
      "stateMutability": "nonpayable",
      "type": "function"
    },
    {
      "inputs": [
        {
          "internalType": "address",
          "name": "from",
          "type": "address"
        },
        {
          "internalType": "address",
          "name": "to",
          "type": "address"
        },
        {
          "internalType": "uint256",
          "name": "value",
          "type": "uint256"
        }
      ],
      "name": "transferInternal",
      "outputs": [],
      "stateMutability": "nonpayable",
      "type": "function"
    }
  ],
  "bytecode": "0x60806040526040516200122338038062001223833981810160405260808110156200002957600080fd5b81019080805160405193929190846401000000008211156200004a57600080fd5b9083019060208201858111156200006057600080fd5b82516401000000008111828201881017156200007b57600080fd5b82525081516020918201929091019080838360005b83811015620000aa57818101518382015260200162000090565b50505050905090810190601f168015620000d85780820380516001836020036101000a031916815260200191505b5060405260200180516040519392919084640100000000821115620000fc57600080fd5b9083019060208201858111156200011257600080fd5b82516401000000008111828201881017156200012d57600080fd5b82525081516020918201929091019080838360005b838110156200015c57818101518382015260200162000142565b50505050905090810190601f1680156200018a5780820380516001836020036101000a031916815260200191505b50604090815260208281015192909101518651929450925085918591620001b7916003918501906200037b565b508051620001cd9060049060208401906200037b565b50506005805460ff1916601217905550620001f282826001600160e01b03620001fc16565b5050505062000420565b6001600160a01b03821662000258576040805162461bcd60e51b815260206004820152601f60248201527f45524332303a206d696e7420746f20746865207a65726f206164647265737300604482015290519081900360640190fd5b6200026f600083836001600160e01b036200031416565b6200028b816002546200031960201b620006df1790919060201c565b6002556001600160a01b03821660009081526020818152604090912054620002be918390620006df62000319821b17901c565b6001600160a01b0383166000818152602081815260408083209490945583518581529351929391927fddf252ad1be2c89b69c2b068fc378daa952ba7f163c4a11628f55a4df523b3ef9281900390910190a35050565b505050565b60008282018381101562000374576040805162461bcd60e51b815260206004820152601b60248201527f536166654d6174683a206164646974696f6e206f766572666c6f770000000000604482015290519081900360640190fd5b9392505050565b828054600181600116156101000203166002900490600052602060002090601f016020900481019282601f10620003be57805160ff1916838001178555620003ee565b82800160010185558215620003ee579182015b82811115620003ee578251825591602001919060010190620003d1565b50620003fc92915062000400565b5090565b6200041d91905b80821115620003fc576000815560010162000407565b90565b610df380620004306000396000f3fe608060405234801561001057600080fd5b50600436106100e05760003560e01c806342966c681161008757806342966c68146102a057806356189cb4146102bd57806370a08231146102f357806379cc67901461031957806395d89b4114610345578063a457c2d71461034d578063a9059cbb14610379578063dd62ed3e146103a5576100e0565b806306fdde03146100e5578063095ea7b31461016257806318160ddd146101a2578063222f5be0146101bc57806323b872dd146101f4578063313ce5671461022a578063395093511461024857806340c10f1914610274575b600080fd5b6100ed6103d3565b6040805160208082528351818301528351919283929083019185019080838360005b8381101561012757818101518382015260200161010f565b50505050905090810190601f1680156101545780820380516001836020036101000a031916815260200191505b509250505060405180910390f35b61018e6004803603604081101561017857600080fd5b506001600160a01b038135169060200135610469565b604080519115158252519081900360200190f35b6101aa610486565b60408051918252519081900360200190f35b6101f2600480360360608110156101d257600080fd5b506001600160a01b0381358116916020810135909116906040013561048c565b005b61018e6004803603606081101561020a57600080fd5b506001600160a01b0381358116916020810135909116906040013561049c565b610232610529565b6040805160ff9092168252519081900360200190f35b61018e6004803603604081101561025e57600080fd5b506001600160a01b038135169060200135610532565b6101f26004803603604081101561028a57600080fd5b506001600160a01b038135169060200135610586565b6101f2600480360360208110156102b657600080fd5b5035610594565b6101f2600480360360608110156102d357600080fd5b506001600160a01b038135811691602081013590911690604001356105a1565b6101aa6004803603602081101561030957600080fd5b50356001600160a01b03166105ac565b6101f26004803603604081101561032f57600080fd5b506001600160a01b0381351690602001356105c7565b6100ed6105d1565b61018e6004803603604081101561036357600080fd5b506001600160a01b038135169060200135610632565b61018e6004803603604081101561038f57600080fd5b506001600160a01b0381351690602001356106a0565b6101aa600480360360408110156103bb57600080fd5b506001600160a01b03813581169160200135166106b4565b60038054604080516020601f600260001961010060018816150201909516949094049384018190048102820181019092528281526060939092909183018282801561045f5780601f106104345761010080835404028352916020019161045f565b820191906000526020600020905b81548152906001019060200180831161044257829003601f168201915b5050505050905090565b600061047d610476610740565b8484610744565b50600192915050565b60025490565b610497838383610830565b505050565b60006104a9848484610830565b61051f846104b5610740565b61051a85604051806060016040528060288152602001610ce7602891396001600160a01b038a166000908152600160205260408120906104f3610740565b6001600160a01b03168152602081019190915260400160002054919063ffffffff61098516565b610744565b5060019392505050565b60055460ff1690565b600061047d61053f610740565b8461051a8560016000610550610740565b6001600160a01b03908116825260208083019390935260409182016000908120918c16815292529020549063ffffffff6106df16565b6105908282610a1c565b5050565b61059e3382610b06565b50565b610497838383610744565b6001600160a01b031660009081526020819052604090205490565b6105908282610b06565b60048054604080516020601f600260001961010060018816150201909516949094049384018190048102820181019092528281526060939092909183018282801561045f5780601f106104345761010080835404028352916020019161045f565b600061047d61063f610740565b8461051a85604051806060016040528060258152602001610d996025913960016000610669610740565b6001600160a01b03908116825260208083019390935260409182016000908120918d1681529252902054919063ffffffff61098516565b600061047d6106ad610740565b8484610830565b6001600160a01b03918216600090815260016020908152604080832093909416825291909152205490565b600082820183811015610739576040805162461bcd60e51b815260206004820152601b60248201527f536166654d6174683a206164646974696f6e206f766572666c6f770000000000604482015290519081900360640190fd5b9392505050565b3390565b6001600160a01b0383166107895760405162461bcd60e51b8152600401808060200182810382526024815260200180610d756024913960400191505060405180910390fd5b6001600160a01b0382166107ce5760405162461bcd60e51b8152600401808060200182810382526022815260200180610c9f6022913960400191505060405180910390fd5b6001600160a01b03808416600081815260016020908152604080832094871680845294825291829020859055815185815291517f8c5be1e5ebec7d5bd14f71427d1e84f3dd0314c0f7b2291e5b200ac8c7c3b9259281900390910190a3505050565b6001600160a01b0383166108755760405162461bcd60e51b8152600401808060200182810382526025815260200180610d506025913960400191505060405180910390fd5b6001600160a01b0382166108ba5760405162461bcd60e51b8152600401808060200182810382526023815260200180610c5a6023913960400191505060405180910390fd5b6108c5838383610497565b61090881604051806060016040528060268152602001610cc1602691396001600160a01b038616600090815260208190526040902054919063ffffffff61098516565b6001600160a01b03808516600090815260208190526040808220939093559084168152205461093d908263ffffffff6106df16565b6001600160a01b03808416600081815260208181526040918290209490945580518581529051919392871692600080516020610d0f83398151915292918290030190a3505050565b60008184841115610a145760405162461bcd60e51b81526004018080602001828103825283818151815260200191508051906020019080838360005b838110156109d95781810151838201526020016109c1565b50505050905090810190601f168015610a065780820380516001836020036101000a031916815260200191505b509250505060405180910390fd5b505050900390565b6001600160a01b038216610a77576040805162461bcd60e51b815260206004820152601f60248201527f45524332303a206d696e7420746f20746865207a65726f206164647265737300604482015290519081900360640190fd5b610a8360008383610497565b600254610a96908263ffffffff6106df16565b6002556001600160a01b038216600090815260208190526040902054610ac2908263ffffffff6106df16565b6001600160a01b038316600081815260208181526040808320949094558351858152935192939192600080516020610d0f8339815191529281900390910190a35050565b6001600160a01b038216610b4b5760405162461bcd60e51b8152600401808060200182810382526021815260200180610d2f6021913960400191505060405180910390fd5b610b5782600083610497565b610b9a81604051806060016040528060228152602001610c7d602291396001600160a01b038516600090815260208190526040902054919063ffffffff61098516565b6001600160a01b038316600090815260208190526040902055600254610bc6908263ffffffff610bfc16565b6002556040805182815290516000916001600160a01b03851691600080516020610d0f8339815191529181900360200190a35050565b600082821115610c53576040805162461bcd60e51b815260206004820152601e60248201527f536166654d6174683a207375627472616374696f6e206f766572666c6f770000604482015290519081900360640190fd5b5090039056fe45524332303a207472616e7366657220746f20746865207a65726f206164647265737345524332303a206275726e20616d6f756e7420657863656564732062616c616e636545524332303a20617070726f766520746f20746865207a65726f206164647265737345524332303a207472616e7366657220616d6f756e7420657863656564732062616c616e636545524332303a207472616e7366657220616d6f756e74206578636565647320616c6c6f77616e6365ddf252ad1be2c89b69c2b068fc378daa952ba7f163c4a11628f55a4df523b3ef45524332303a206275726e2066726f6d20746865207a65726f206164647265737345524332303a207472616e736665722066726f6d20746865207a65726f206164647265737345524332303a20617070726f76652066726f6d20746865207a65726f206164647265737345524332303a2064656372656173656420616c6c6f77616e63652062656c6f77207a65726fa2646970667358221220280b2e4a15a7634b747065e1aba6f79daeb7c62a203245215881fe4f1da6b49c64736f6c634300060b0033",
  "linkReferences": {},
  "deployedLinkReferences": {}
}